:100000000C9485470C94A6470C94ACCE0C94A64750
:100010000C94A6470C94A6470C94A6470C94A647AC
:100020000C94A6470C94A6470C94A6470C94D7D0E2
:100030000C94A6470C94A6470C949DB30C94A64729
:100040000C94A6470C94A6470C94A6470C94A6477C
:100050000C94A6470C94A6470C94A6470C94A6476C
:100060000C94A6470C94C6CE0C9455CE0C94A6477F
:100070000C941FC80C94C1C70C94FDC70C94A647E0
:100080000C9477CF0C94A6470C94A6470C94A647E3
:100090000C94A6470C94A6470C94A6470C94A6472C
:1000A0000C94A6470C94A6470C94A6470C9478BAD7
:1000B0000C941CBB0C94A6470C94A6470C948EB5CC
:1000C0000C94A6470C94A6470C94A6470C94A647FC
:1000D0000C94A6470C94A6470C94A6470C94A647EC
:1000E0000C94D9A50C94A6470C94A6470C94A6474B
:1000F0000C94A6470C94A6470C94A6470C94A647CC
:100100000C944FBA0C94F3BA0C9426BA0C94CABA55
:100110000C94A6470C94A6470C94A6470C94A647AB
:100120000C94A6470C94A6470C94A6470C94A6479B
:100130000C94A6470C94F2B40C94A6470C94A647D2
:100140000C94A6470C94A6470C94A6470C94A6477B
:100150000C94A6470C94A6470C94CFA50C94A647E4
:100160000C94A6470C94A6470C94A6470C94A6475B
:100170000C94A6470C94A6470C94A6470C94A6474B
:100180000C94A6470C94A6470C94A6470C94A6473B
:100190000C94A6470C94A6470C94A6470C94A6472B
:1001A0000C94A1BA0C9445BB0C94A6470C94A6479A
:1001B0000C9440B50C94A6470C94A6470C94A64703
:1001C0000C94A6470C94A6470C94A6470C94A647FB
:1001D0000C94A6470C94A6470C94A6470C94A647EB
:1001E0000C94A6470C94A6478F709970A370AD70BD
:1001F000B870BC76BC76BC76BC76BC76BE70BC767D
:10020000BC76BC76BC76BC76BC76C070CA70D47046
:10021000DE70E870BC76BC76BC76BC76BC76BC760C
:10022000F270BC764871BC76BC76BC76BC76BC7687
:10023000BC76BC768771BC76A374BC76BC76BC7683
:10024000BC76BC76BC76BC76BC76A374BC76BC7639
:10025000BC76B471B971C371CD71CF71D971E471CC
:10026000BC76EF71BC76BC762C72BC76BC76BC7664
:10027000BC76BC76BC76BC76BC76BC76BC76BC76EE
:10028000BC76BC76BC76BC763672BC76BC76BC7668
:10029000BC76BC76BC76BC76BC76BC7640727D7291
:1002A000BA7203730D732673267330733A734473F3
:1002B0004E7358735D7367737173BA76BA76BA7694
:1002C000BA76BA76BA76BA76BA76BA76BA76BA76AE
:1002D000BA76BA76BA76BA76BA76BA76BA76BA769E
:1002E000BA763073BA76BA76BA76BA76BA76BA761B
:1002F000BA76BA76BA76BA76BA76BA76BA76BA767E
:10030000BA76BA76BA767B7385738F739973BA7639
:10031000BA76BA76BA76BA76BA76BA76BA762673F4
:10032000477608760C761476F075F475FC750076D1
:10033000207633763B763F7643769F761876147434
:1003400025743674BC76BC76AE738070BC76477408
:1003500058746974A37417738B74BC76BF73BC76BE
:100360007A74D073A373BC76BC76BC76E173F273F7
:100370000374BFB9C7B9CFB9D7B9DFB9E7B9EFB916
:10038000F7B9EABC47BC4FBC57BC5FBC67BC6FBC8D
:1003900077BC7FBC87BC8FBC97BC9FBCA7BCAFBCE5
:1003A000CFBCCFBCCFBCCFBCCFBCCFBCCFBCCFBCF5
:1003B000CFBCCFBCCFBCCFBCCFBCCFBCCFBCCFBCE5
:1003C000CFBCCFBCCFBCCFBCCFBCCFBCCFBCCFBCD5
:1003D000CFBCCFBCCFBCCFBCCFBCCFBCCFBCCFBCC5
:1003E000CFBCCFBCCFBCB7BCBFBCCFBCCFBCCFBCDD
:1003F000CFBCCFBCCFBCCFBCCFBCCFBCCFBCCFBCA5
:10040000CFBCCFBCCFBCCFBCCFBCCFBCCFBCCFBC94
:10041000CFBCCFBCCFBCCFBCCFBCCFBCCFBCCFBC84
:10042000CFBCCFBCCFBCCFBCCFBCCFBCCFBCCFBC74
:10043000CFBCCFBCCFBCCFBCCFBCCFBCCFBCCFBC64
:10044000CFBCCFBCCFBCCFBCC7BC084AD73B3BCE90
:10045000016E84BCBFFDC12F3D6C74319ABD5683C3
:100460003DDA3D00C77F11BED9E4BB4C3E916BAA7B
:10047000AABE000000803F05A84CCDB2D44EB938CA
:1004800036A9020C50B9918688083CA6AAAA2ABEB1
:10049000000000803F07634236B79BD8A71A39682F
:1004A0005618AEBAAB558C1D3CB7CC5763BD6DED3D
:1004B000FD753EF6177231BF000000803F08000056
:1004C00000BE922449123EABAAAA2ABECDCCCC4C87
:1004D0003E00000080BEABAAAAAA3E00000000BFFA
:1004E000000000803F0000000000084178D3BB43BB
:1004F00087D1133D190E3CC3BD4282AD2B3E68EC43
:100500008276BED98FE1A93E4C80EFFFBE01C4FFC9
:100510007F3F0000000000000C943A730C94AA5630
:100520000C94FDC60C9435BC0C9436740C94FE7679
:100530000C94BC560C948B660C9471630C94C1C0E3
:100540000C9436A70C9426730C94BFB90C94717359
:100550000C94AACC0C946A5A0C9434CA0C940E775E
:100560000C947BB90C94D9710C9422A70C9446CCB2
:100570000C94645B0C9483670C94C1AC0C94425A49
:100580000C94C2560C945FBC0C94465A0C94E870C0
:100590000C94305B0C94BE5D0C94BC470C948FBCE7
:1005A0000C943F760C9408760C94DDB80C9417BC30
:1005B0000C94CFB90C94B2470C94D3560C94665952
:1005C0000C9414740C94765A0C945A570C94A847B3
:1005D0000C94AFBC0C94125D0C9442A70C946FBCAD
:1005E0000C943D7F0C94BF730C94CDAC0C94365D91
:1005F0000C9414760C946EC70C942C630C948E5946
:100600000C945A5A0C9467730C9433760C940374BC
:100610000C94A9630C94665A0C94F8620C94505B89
:100620000C94E4710C94B0560C94F2560C9492B95C
:100630000C94C5AC0C9447760C94CBCB0C947FBC3B
:100640000C944C5B0C94A55A0C94B4710C94D4701B
:100650000C9413570C94194B0C9449C60C94625A81
:100660000C949EC10C94F3570C94E7B90C9400764B
:100670000C9480590C94F4750C949D560C94725AF9
:100680000C94485B0C9425B80C94AD700C946F5886
:100690000C94E1730C94DE560C947D5E0C94F45330
:1006A0000C94BA720C94B6560C947A5A0C94A7BC5B
:1006B0000C94CF710C94C3620C94C7BC0C94DFB93A
:1006C0000C943C5B0C9496B90C948AB90C947D6C98
:1006D0000C9478780C942C570C94C45A0C94FD56B6
:1006E0000C94865A0C94417F0C94FB470C94C9AC33
:1006F0000C943A5A0C946C780C9430730C94C9573F
:100700000C942EA70C9447BC0C9421AE0C94EF7162
:100710000C94C7B90C94A5AC0C9420760C946FC6BD
:100720000C9425740C94DCC60C94F8AD0C944473B2
:100730000C9417730C94CE670C9403730C94CFBC79
:100740000C944E730C9448710C9487710C94AFB850
:100750000C94F0750C94BC760C94F4770C94BB62FA
:100760000C9472B90C9436720C945C580C94EABCDC
:100770000C948EB90C94A8C00C9431BC0C9425AB8D
:100780000C94BB590C94C7620C9487BC0C948F706A
:100790000C944E5A0C94C3710C9454680C942AA770
:1007A0000C94C0700C9495590C9497BC0C946EB931
:1007B0000C9451620C943EA70C94545B0C94A16A67
:1007C0000C9418760C94BF620C94CA700C942C5B39
:1007D0000C9462C90C949C590C94D0730C94426094
:1007E0000C94F2730C940C480C94A3730C945CC797
:1007F0000C949FBC0C94BE700C9417B90C942C7282
:100800000C94EE5C0C9443760C947B730C94945C87
:100810000C9469740C94EFB90C94E76D0C94965D8C
:100820000C94E7AA0C946C5B0C94565E0C94DE70EE
:100830000C9435590C944C790C94B7780C94B65EA2
:100840000C94B8700C9419B80C9447740C94685BB1
:100850000C94E5AA0C94985D0C9494CB0C94565A85
:100860000C947D720C9480700C94A1670C9414818C
:100870000C948B740C94DDC00C9457BC0C944FBC3E
:100880000C9447780C94BFBC0C940D730C94747842
:100890000C949F760C94A9C00C94DA590C94F270C5
:1008A0000C945D5D0C942D5E0C94C8CA0C94F67883
:1008B0000C94B7BC0C9431B80C94BA760C944C7868
:1008C0000C94C3B80C94A3700C94E35D0C949257F1
:1008D0000C94365A0C94EA5C0C945D730C94F7B942
:1008E0000C94397F0C9466620C9404C60C943E5AA6
:1008F0000C94B9710C94E9AA0C94785B0C940E6773
:100900000C944A5A0C941FAB0C94835B0C94AE73FA
:100910000C94D7B90C9412630C945E5A0C94036235
:100920000C943FB90C94B7620C94085E0C947E5AF8
:100930000C94FA830C94E7560C9408570C94296E87
:100940000C9467BC0C948F730C947A740C9474ACF4
:100950000C94585B0C94DD580C94F5CD0C94707885
:100960000C94F5A70C94C8560C9454670C941EA7CD
:100970000C94A96A0C946E5A0C9426A70C94587483
:100980000C9458730C943AA70C9476B90C94CD71CE
:100990000C9477BC0C940C760C94A3740C94606D3E
:1009A0000C94E1630C94FAC00C94884E0C947B6D0B
:1009B0000C94605B0C94385B0C94E75A0C94525A7C
:1009C0000C9485730C9461590C94825A0C94405B7E
:1009D0000C94CA7E0C9499730C945C5B0C94C85A6A
:1009E0000C9440720C9499700C9446630C94435789
:1009F0000C94FC750C9432A70C9489AC0C94E367AE
:100A00000C943B760C94445B0C94345B0C942F92C6
:100A10000C947C780C9421AB0C942C580C9434CB13
:100A20000C9421790C9487590C9411BC5B25732587
:100A3000735D20257320257320706F736974696F4F
:100A40006E2531382E336625730A005B25732573B6
:100A50005D202573202573206F66667365742532CB
:100A6000302E336625730A005B257325735D2025C0
:100A700073207A65726F206261636B6F66662531E1
:100A8000392E336625730A005B257325735D202597
:100A900073206C61746368206261636B6F666625A6
:100AA00031382E336625730A005B257325735D206C
:100AB0002573206C617463682076656C6F6369745C
:100AC000792531332E306625732F6D696E0A005BF0
:100AD000257325735D20257320736561726368201B
:100AE00076656C6F636974792531322E30662573B3
:100AF0002F6D696E0A005B257325735D20257320B9
:100B0000737769746368206D617825313764205B81
:100B1000303D6F66662C313D686F6D696E672C32B3
:100B20003D6C696D69742C333D6C696D69742B681B
:100B30006F6D696E675D0A005B257325735D202507
:100B40007320737769746368206D696E253137642B
:100B5000205B303D6F66662C313D686F6D696E6756
:100B60002C323D6C696D69742C333D6C696D697410
:100B70002B686F6D696E675D0A005B257325735D79
:100B8000202573207261646975732076616C7565C8
:100B90002532302E346625730A005B257325735D7C
:100BA000202573206A756E6374696F6E20646576A4
:100BB000696174696F6E2531342E3466257320287F
:100BC0006C61726765722069732066617374657207
:100BD000290A005B257325735D202573206A6572E1
:100BE0006B20686F6D696E672531362E3066257310
:100BF0002F6D696E5E33202A2031206D696C6C691F
:100C00006F6E0A005B257325735D202573206A656E
:100C1000726B206D6178696D756D2531352E30668A
:100C200025732F6D696E5E33202A2031206D696C2B
:100C30006C696F6E0A005B257325735D2025732038
:100C400074726176656C206D696E696D756D2531A4
:100C5000372E336625730A005B257325735D2025C7
:100C6000732074726176656C206D6178696D756D45
:100C70002531372E336625730A005B257325735D96
:100C80002025732076656C6F63697479206D6178B7
:100C9000696D756D2531312E306625732F6D696E46
:100CA0000A005B257325735D2025732066656564E6
:100CB00072617465206D6178696D756D2531312EB5
:100CC000306625732F6D696E0A005B257325735D91
:100CD0002025732061786973206D6F646525313834
:100CE000642025730A005B6D615D20206D696E20B4
:100CF000617263207365676D656E742531382E33BC
:100D00006625730A005B736C5D2020736F66742028
:100D10006C696D697420656E61626C652531326441
:100D20000A005B63745D202063686F7264616C20ED
:100D3000746F6C6572616E63652531372E3466257C
:100D4000730A005B6A615D20206A756E6374696F67
:100D50006E20616363656C65726174696F6E2538BE
:100D60002E306625730A005B6764695D20646566E2
:100D700061756C742067636F646520646973746166
:100D80006E6365206D6F6465253264205B303D477E
:100D900039302C313D4739315D0A005B6770615D48
:100DA0002064656661756C742067636F646520708C
:100DB00061746820636F6E74726F6C253364205B9E
:100DC000303D4736312C313D4736312E312C323DC6
:100DD0004736345D0A005B67636F5D20646566615A
:100DE000756C742067636F646520636F6F72642035
:100DF00073797374656D253364205B312D3620283B
:100E00004735342D473539295D0A005B67756E5DBE
:100E10002064656661756C742067636F6465207516
:100E20006E697473206D6F6465253564205B303D99
:100E30004732302C313D4732315D0A005B67706CC0
:100E40005D2064656661756C742067636F646520FE
:100E5000706C616E6525313064205B303D47313701
:100E60002C313D4731382C323D4731395D0A002560
:100E70006320776F726B206F66667365743A2531F5
:100E8000322E336625730A002563206D616368691D
:100E90006E6520706F736E3A2531312E336625737F
:100EA0000A00256320706F736974696F6E3A25318B
:100EB000352E336625730A00546F6F6C206E756D86
:100EC0006265722020202020202020202025640A16
:100ED00000466565642072617465206D6F64653AD3
:100EE00020202020202025730A0044697374616E3D
:100EF0006365206D6F64653A202020202020202526
:100F0000730A0050617468204D6F64653A20202098
:100F1000202020202020202025730A00506C616EA4
:100F2000653A202020202020202020202020202062
:100F30002025730A004D6F74696F6E206D6F6465B4
:100F40003A20202020202020202025730A00436FF3
:100F50006F7264696E6174652073797374656D3A3C
:100F600020202025730A00556E6974733A202020D2
:100F700020202020202020202020202025730A004F
:100F8000486F6D696E672073746174653A20202024
:100F9000202020202025730A0046656564686F6C58
:100FA000642073746174653A20202020202025730A
:100FB0000A004D6F74696F6E2073746174653A2016
:100FC0002020202020202025730A004379636C65AF
:100FD0002073746174653A20202020202020202076
:100FE00025730A00526177206D616368696E652020
:100FF00073746174653A20202025730A004D616383
:1010000068696E652073746174653A202020202021
:10101000202025730A004C696E65206E756D62652F
:10102000723A2531302E30660A00466565642072BA
:101030006174653A2531362E336625732F6D696EDE
:101040000A0056656C6F636974793A2531372E331F
:101050006625732F6D696E0A00B0107F105F104710
:101060003935202D20756E6974732D7065722D725F
:1010700065766F6C7574696F6E206D6F646500477F
:101080003934202D20756E6974732D7065722D6D45
:10109000696E757465206D6F64652028692E652EF4
:1010A000206665656472617465206D6F64652900F2
:1010B000473933202D20696E766572736520746917
:1010C0006D65206D6F646500EC10CC1047393120E0
:1010D0002D20696E6372656D656E74616C20646944
:1010E0007374616E6365206D6F64650047393020ED
:1010F0002D206162736F6C7574652064697374610F
:101100006E6365206D6F6465003D1125110F1147F9
:101110003634202D20636F6E74696E756F75732081
:101120006D6F6465004736312E31202D2065786162
:1011300063742073746F70206D6F6465004736317F
:10114000202D2065786163742070617468206D6F54
:10115000646500771168115911473139202D2059E4
:101160005A20706C616E6500473138202D20585A26
:1011700020706C616E6500473137202D2058592052
:10118000706C616E65000312F111D811B7119011E6
:10119000473830202D2063616E63656C206D6F745D
:1011A000696F6E206D6F646520286E6F6E652061BB
:1011B00063746976652900473320202D20636F759D
:1011C0006E74657220636C6F636B77697365206101
:1011D0007263206665656400473220202D20636CB1
:1011E0006F636B7769736520617263206665656400
:1011F00000473120202D206C696E65617220666584
:10120000656400473020202D206C696E6561722076
:10121000747261766572736520287365656B290049
:10122000CA12B01296127C12621248122E12473560
:1012300039202D20636F6F7264696E61746520734D
:10124000797374656D203600473538202D20636F23
:101250006F7264696E6174652073797374656D2053
:101260003500473537202D20636F6F7264696E61DA
:1012700074652073797374656D20340047353620AA
:101280002D20636F6F7264696E617465207379736A
:1012900074656D203300473535202D20636F6F72E4
:1012A00064696E6174652073797374656D203200B2
:1012B000473534202D20636F6F7264696E617465E9
:1012C0002073797374656D203100473533202D20EC
:1012D0006D616368696E6520636F6F7264696E61CA
:1012E00074652073797374656D00FD12F712F01246
:1012F000486F6D696E6700486F6D6564004E6F746E
:1013000020486F6D65640031132C13271321131CC3
:10131000131313456E6420486F6C6400486F6C644F
:1013200000446563656C00506C616E0053796E63B8
:10133000004F666600441340133B13486F6C640013
:1013400052756E0053746F70006E1364135E135702
:101350001353134A6F6700486F6D696E67005072D0
:101360006F6265004D616368696E696E67004F6604
:101370006600A4139E13981393138F13891380137D
:1013800053687574646F776E004379636C650045CC
:101390006E640053746F7000416C61726D00526531
:1013A00061647900496E697469616C697A696E6714
:1013B0000007140114FB13F613F213EE13E913E301
:1013C00013DD13D613D213C91353687574646F7782
:1013D0006E004A6F6700486F6D696E6700437963FE
:1013E0006C650050726F626500486F6C64005275E6
:1013F0006E00456E640053746F7000416C61726DD5
:1014000000526561647900496E697469616C697A3A
:10141000696E67002E141814473231202D206D6933
:101420006C6C696D65746572206D6F646500473220
:1014300030202D20696E63686573206D6F646500D0
:1014400068145D14511448145B7261646975735DAE
:10145000005B696E686962697465645D005B7374E2
:10146000616E646172645D005B64697361626C6586
:10147000645D0082147E1479142064656700206D19
:101480006D0020696E002A2A2A204E4F5449434598
:10149000202A2A2A20526573657474696E67206257
:1014A000617564207261746520746F202573005B20
:1014B0006E65745D206E6574776F726B206D6F64FE
:1014C0006525313764205B303D6D61737465725DF5
:1014D0000A005B626175645D20555342206261754C
:1014E00064207261746525313564205B313D393685
:1014F00030302C323D31393230302C333D333834BA
:1015000030302C343D35373630302C353D313135A7
:101510003230302C363D3233303430305D0A005BAF
:1015200065785D2020656E61626C6520666C6F7702
:1015300020636F6E74726F6C25313064205B303DB8
:101540006F66662C313D584F4E2F584F46462C2023
:10155000323D5254532F4354535D0A005B65655D21
:101560002020656E61626C65206563686F25313887
:1015700064205B303D6F66662C313D6F6E5D0A0006
:101580005B65635D2020657870616E64204C462049
:10159000746F2043524C46206F6E20545825366499
:1015A000205B303D6F66662C313D6F6E5D0A00E258
:1015B00015DD15D715D115CB15C415BD1532333032
:1015C000343030003131353230300035373630305C
:1015D0000033383430300031393230300039363071
:1015E000300030007379730066620000000007026B
:1015F0006C785D5D965D28349A19DC4373797300CD
:10160000667600000000070370785D5D965D2C34FF
:10161000EC51783F73797300687000000000070098
:1016200074785D5D7D5E30340000803F73797300B7
:10163000687600000000070078785D5D4C783434EF
:101640000000004173797300696400000000040029
:101650007C78F477965D24340000000000000000E0
:101660006E00000000000100365A2C572D5E112C30
:1016700000000000000000006C696E6500000100C1
:10168000365A43572D5E112C000000000000000068
:1016900076656C00000000029C595A57965D243410
:1016A00000000000000000006665656400000002A4
:1016B000BB599257965D24340000000000000000E2
:1016C00073746174000000003A5A9D56965D24348C
:1016D00000000000000000006D6163730000000066
:1016E0003E5AAA56965D2434000000000000000017
:1016F0006379637300000000425AB056965D24344B
:1017000000000000000000006D6F74730000000016
:10171000465AB656965D24340000000000000000D2
:10172000686F6C64000000004A5ABC56965D243411
:101730000000000000000000756E697400000000E9
:10174000525AC856965D2434000000000000000084
:10175000636F6F7200000000565AD356965D2434B2
:1017600000000000000000006D6F6D6F00000000C1
:101770005A5ADE56965D2434000000000000000036
:10178000706C616E000000005E5AE756965D24346E
:10179000000000000000000070617468000000009C
:1017A000625AF256965D24340000000000000000EA
:1017B0006469737400000000665AFD56965D243417
:1017C000000000000000000066726D6F0000000065
:1017D0006A5A0857965D243400000000000000009B
:1017E000746F6F6C000000006E5A1357965D2434BE
:1017F000000000006D706F006D706F7800000003D6
:10180000785BF357965D2434000000006D706F0024
:101810006D706F7900000003785BF357965D243498
:10182000000000006D706F006D706F7A00000003A3
:10183000785BF357965D2434000000006D706F00F4
:101840006D706F6100000003785BF357965D243480
:10185000000000006D706F006D706F62000000038B
:10186000785BF357965D2434000000006D706F00C4
:101870006D706F6300000003785BF357965D24344E
:1018800000000000706F7300706F73780000000339
:101890006C5BC957965D243400000000706F7300C4
:1018A000706F7379000000036C5BC957965D243438
:1018B00000000000706F7300706F737A0000000307
:1018C0006C5BC957965D243400000000706F730094
:1018D000706F7361000000036C5BC957965D243420
:1018E00000000000706F7300706F736200000003EF
:1018F0006C5BC957965D243400000000706F730064
:10190000706F7363000000036C5BC957965D2434ED
:10191000000000006F6673006F66737800000003BC
:10192000835B2C58965D2434000000006F667300C2
:101930006F66737900000003835B2C58965D243436
:10194000000000006F6673006F66737A000000038A
:10195000835B2C58965D2434000000006F66730092
:101960006F66736100000003835B2C58965D24341E
:10197000000000006F6673006F6673620000000372
:10198000835B2C58965D2434000000006F66730062
:101990006F66736300000003835B2C58965D2434EC
:1019A00000000000686F6D00686F6D65000000004A
:1019B0004E5AC2566659243400000000686F6D000C
:1019C000686F6D78000000006C5BEE5C965DE62B46
:1019D00000000000686F6D00686F6D790000000006
:1019E0006C5BEE5C965DE72B00000000686F6D009D
:1019F000686F6D7A000000006C5BEE5C965DE82B12
:101A000000000000686F6D00686F6D6100000000ED
:101A10006C5BEE5C965DE92B00000000686F6D006A
:101A2000686F6D62000000006C5BEE5C965DEA2BF7
:101A300000000000686F6D00686F6D6300000000BB
:101A40006C5BEE5C965DEB2B000000007072620038
:101A50007072626500000000A8C0EE5C965DEC2B21
:101A60000000000070726200707262780000000373
:101A7000A8C05D5D965DED2B0000000070726200F5
:101A80007072627900000003A8C05D5D965DF12B65
:101A900000000000707262007072627A0000000341
:101AA000A8C05D5D965DF52B0000000070726200BD
:101AB0007072626100000003A8C05D5D965DF92B45
:101AC0000000000070726200707262620000000329
:101AD000A8C05D5D965DFD2B000000007072620085
:101AE0007072626300000003A8C05D5D965D012C0A
:101AF000000000006A6F67006A6F677800000000EE
:101B0000A8C0EA5C80590B2C000000006A6F6700D7
:101B10006A6F677900000000A8C0EA5C87590B2C47
:101B2000000000006A6F67006A6F677A00000000BB
:101B3000A8C0EA5C8E590B2C000000006A6F670099
:101B40006A6F676100000000A8C0EA5C95590B2C21
:101B500000000000707772007077723100000000A2
:101B600096B9C3B8965D2434000000007077720007
:101B7000707772320000000096B9C3B8965D2434C5
:101B80000000000070777200707772330000000070
:101B900096B9C3B8965D24340000000070777200D7
:101BA000707772340000000096B9C3B8965D243493
:101BB0000000000000000000737200000000000040
:101BC0001FABE5AAE7AA24340000000000000000D3
:101BD0007172000000000000C1AC74AC965D24344A
:101BE000000000000000000071690000000000001B
:101BF000C5AC89AC965D24340000000000000000F4
:101C0000716F000000000000C9ACA5AC965D2434E3
:101C100000000000000000006572000000000000ED
:101C2000A8C0F5A7965D2434000000000000000065
:101C30007166000000000000A8C0EA5C615924340D
:101C400000000000000000007278000000000000AA
:101C5000DDC05162965D24340000000000000000E9
:101C60006D73670000000000A9C0EA5C965D243433
:101C70000000000000000000636C6561720000005D
:101C8000A8C0884E884E24340000000000000000E8
:101C90007465737400000000A8C0F67835BC243465
:101CA00000000000000000006465666100000000A4
:101CB000A8C02179945C24340000000000000000DA
:101CC000626F6F7400000000A8C04C79477824341C
:101CD000000000000000000068656C70000000005B
:101CE000A8C0B778965D2434000000000000000012
:101CF0006800000000000000A8C0B778965D24349A
:101D00000000000031000000316D610000000300A0
:101D100072B9EE5C985D8553000000003100000050
:101D2000317361000000030376B95D5D19B890530B
:101D30006666E63F310000003174720000000B045B
:101D40007BB95D5D25B894530000A03F31000000D1
:101D5000316D6900000003008AB9EE5C31B886532A
:101D6000000000413100000031706F0000000300EE
:101D70008EB9EE5CBE5D8A530000000031000000A9
:101D800031706D000000030092B9EE5CAFB88B5368
:101D90000000004032000000326D610000000300CE
:101DA00072B9EE5C985DA4530000803F32000000E1
:101DB000327361000000030376B95D5D19B8AF535B
:101DC0006666E63F320000003274720000000B04C9
:101DD0007BB95D5D25B8B3530000A03F3200000021
:101DE000326D6900000003008AB9EE5C31B8A5537A
:101DF000000000413200000032706F00000003005C
:101E00008EB9EE5CBE5DA9530000000032000000F8
:101E100032706D000000030092B9EE5CAFB8AA53B7
:101E20000000004033000000336D6100000003003B
:101E300072B9EE5C985DC3530000004033000000AF
:101E4000337361000000030376B95D5D19B8CE53AA
:101E50006666E63F330000003374720000000B0436
:101E60007BB95D5D25B8D2530000A03F3300000070
:101E7000336D6900000003008AB9EE5C31B8C453C9
:101E8000000000413300000033706F0000000300C9
:101E90008EB9EE5CBE5DC853000000003300000048
:101EA00033706D000000030092B9EE5CAFB8C95307
:101EB0000000004034000000346D610000000300A9
:101EC00072B9EE5C985DE2530000404034000000BF
:101ED000347361000000030376B95D5D19B8ED53FA
:101EE0006666E63F340000003474720000000B04A4
:101EF0007BB95D5D25B8F1530000B44334000000A8
:101F0000346D6900000003008AB9EE5C31B8E35318
:101F1000000000413400000034706F000000030036
:101F20008EB9EE5CBE5DE753000000003400000097
:101F300034706D000000030092B9EE5CAFB8E85356
:101F4000000000407800000078616D000000030090
:101F5000E75A5C586F58A22A0000803F78000000C2
:101F600078766D0000000B00305B5D5D6662A72A2D
:101F700000004844780000007866720000000B0002
:101F80002C5B5D5D6662A32A000048447800000077
:101F900078746E0000000B03385B5D5D6662AF2AEB
:101FA000000000007800000078746D0000000B0352
:101FB000345B5D5D6662AB2A00001643780000006A
:101FC000786A6D0000000B003C5B5D5DDD58B32A54
:101FD0000000A04178000000786A680000000B0053
:101FE000405B5D5D3559B72A000020427800000053
:101FF000786A640000000B04445B5D5D6662BF2A82
:10200000CDCC4C3D7800000078736E0000000300DA
:102010004C5BEE5C17BCC6290000803F78000000D6
:102020007873780000000300505BEE5C17BCC72992
:1020300000000000780000007873760000000B00BC
:10204000545B5D5D6662C72A0000FA4378000000B9
:10205000786C760000000B00585B5D5D6662CB2AF1
:102060000000C84278000000786C620000000B039A
:102070005C5B5D5D6662CF2A0000A04078000000D6
:10208000787A620000000B03605B5D5D6662D32AB4
:102090000000803F7900000079616D0000000300BE
:1020A000E75A5C586F58D72A0000803F790000003B
:1020B00079766D0000000B00305B5D5D6662DC2AA6
:1020C00000004844790000007966720000000B00AF
:1020D0002C5B5D5D6662D82A0000484479000000F0
:1020E00079746E0000000B03385B5D5D6662E42A64
:1020F000000000007900000079746D0000000B03FF
:10210000345B5D5D6662E02A0000164379000000E2
:10211000796A6D0000000B003C5B5D5DDD58E82ACC
:102120000000A04179000000796A680000000B00FF
:10213000405B5D5D3559EC2A0000204279000000CB
:10214000796A640000000B04445B5D5D6662F42AFA
:10215000CDCC4C3D7900000079736E000000030087
:102160004C5BEE5C17BCC8290000803F7900000082
:102170007973780000000300505BEE5C17BCC9293E
:1021800000000000790000007973760000000B0069
:10219000545B5D5D6662FC2A0000FA437900000032
:1021A000796C760000000B00585B5D5D6662002B69
:1021B0000000C84279000000796C620000000B0347
:1021C0005C5B5D5D6662042B0000A040790000004E
:1021D000797A620000000B03605B5D5D6662082B2C
:1021E0000000803F7A0000007A616D00000003006B
:1021F000E75A5C586F580C2B0000803F7A000000B3
:102200007A766D0000000B00305B5D5D6662112B1D
:10221000000048447A0000007A66720000000B005B
:102220002C5B5D5D66620D2B000048447A00000067
:102230007A746E0000000B03385B5D5D6662192BDB
:10224000000000007A0000007A746D0000000B03AB
:10225000345B5D5D6662152B000096427A000000DB
:102260007A6A6D0000000B003C5B5D5DDD581D2B44
:102270000000A0417A0000007A6A680000000B00AC
:10228000405B5D5D3559212B000020427A00000043
:102290007A6A640000000B04445B5D5D6662292B72
:1022A000CDCC4C3D7A0000007A736E000000030034
:1022B0004C5BEE5C17BCCA29000000007A000000ED
:1022C0007A73780000000300505BEE5C17BCCB29EA
:1022D0000000803F7A0000007A73760000000B0057
:1022E000545B5D5D6662312B0000C8437A000000DC
:1022F0007A6C760000000B00585B5D5D6662352BE2
:102300000000C8427A0000007A6C620000000B03F3
:102310005C5B5D5D6662392B0000A0407A000000C6
:102320007A7A620000000B03605B5D5D66623D2BA4
:102330000000803F6100000061616D00000003004B
:10234000E75A5C586F58412B000040406100000084
:1023500061766D0000000300305B5D5D7D5E462BA5
:102360000000614861000000616672000000030027
:102370002C5B5D5D7D5E422B0000614861000000CA
:1023800061746E0000000303385B5D5D66624E2B76
:10239000000080BF6100000061746D000000030355
:1023A000345B5D5D7D5E4A2B000080BF61000000F4
:1023B000616A6D00000003003C5B5D5DDD58522BDF
:1023C0000000B44561000000616A6800000003007D
:1023D000405B5D5D3559562B0000344661000000BE
:1023E000616A640000000304445B5D5D7D5E5E2BFA
:1023F000CDCC4C3D610000006172610000000B0318
:10240000485B5D5D7D5E622BD5B74B3E6100000091
:1024100061736E00000003004C5BEE5C17BCCC29BE
:102420000000803F6100000061737800000003003D
:10243000505BEE5C17BCCD2900000000610000007D
:102440006173760000000300545B5D5D7D5E662B6A
:102450000000164461000000616C7600000003007B
:10246000585B5D5D7D5E6A2B0000C8426100000024
:10247000616C6200000003035C5B5D5D7D5E6E2B42
:102480000000A04061000000617A620000000303C8
:10249000605B5D5D7D5E722B0000004062000000AD
:1024A00062616D0000000300E75A5C586F58762B9C
:1024B000000000006200000062766D000000030072
:1024C000305B5D5D7D5E7B2B00006145620000003E
:1024D00062667200000003002C5B5D5D7D5E772B01
:1024E000000061456200000062746E00000003039A
:1024F000385B5D5D6662832B000080BF6200000078
:1025000062746D0000000303345B5D5D7D5E7F2BB4
:10251000000080BF62000000626A6D0000000300DE
:102520003C5B5D5DDD58872B0000A0416200000030
:10253000626A640000000300445B5D5D7D5E932B76
:10254000CDCC4C3D620000006272610000000B03C4
:10255000485B5D5D7D5E972B0000803F630000005F
:1025600063616D0000000300E75A5C586F58AB2BA5
:10257000000000006300000063766D0000000300AF
:10258000305B5D5D7D5EB02B000061456300000047
:1025900063667200000003002C5B5D5D7D5EAC2B0A
:1025A000000061456300000063746E0000000303D7
:1025B000385B5D5D6662B82B000080BF6300000081
:1025C00063746D0000000303345B5D5D7D5EB42BBE
:1025D000000080BF63000000636A6D00000003001C
:1025E0003C5B5D5DDD58BC2B0000A041630000003A
:1025F000636A640000000300445B5D5D7D5EC82B80
:10260000CDCC4C3D630000006372610000000B0301
:10261000485B5D5D7D5ECC2B0000803F703100002B
:1026200070316672710003001EA75D5D7D5E6152B0
:102630000000C84270310000703163736C00030009
:1026400022A75D5D7D5E655200007A447031000016
:10265000703163736800030026A75D5D7D5E69527B
:102660000000FA4470310000703163706C000303A5
:102670002AA75D5D7D5E6D520000003E7031000056
:1026800070316370680003032EA75D5D7D5E71523B
:10269000CDCC4C3E70310000703177736C0003007C
:1026A00032A75D5D7D5E755200007A447031000096
:1026B000703177736800030036A75D5D7D5E7952E7
:1026C0000000FA4470310000703177706C00030331
:1026D0003AA75D5D7D5E7D520000003E70310000D6
:1026E00070317770680003033EA75D5D7D5E8152A7
:1026F000CDCC4C3E703100007031706F660003032A
:1027000042A75D5D7D5E8552CDCCCC3D6735340002
:102710006735347800000B03645B5D5D6662122AE6
:1027200000000000673534006735347900000B0382
:10273000645B5D5D6662162A000000006735340048
:102740006735347A00000B03645B5D5D66621A2AAC
:1027500000000000673534006735346100000B036A
:10276000645B5D5D66621E2A000000006735340010
:102770006735346200000B03645B5D5D6662222A8C
:1027800000000000673534006735346300000B0338
:10279000645B5D5D6662262A0000000067353500D7
:1027A0006735357800000B03645B5D5D66622A2A3D
:1027B00000009642673535006735357900000B0318
:1027C000645B5D5D66622E2A0000964267353500C7
:1027D0006735357A00000B03645B5D5D6662322A03
:1027E00000000000673535006735356100000B03D8
:1027F000645B5D5D6662362A000000006735350067
:102800006735356200000B03645B5D5D66623A2AE2
:1028100000000000673535006735356300000B03A5
:10282000645B5D5D66623E2A00000000673536002D
:102830006735367800000B03645B5D5D6662422A93
:1028400000000000673536006735367900000B035D
:10285000645B5D5D6662462A0000000067353600F5
:102860006735367A00000B03645B5D5D66624A2A59
:1028700000000000673536006735366100000B0345
:10288000645B5D5D66624E2A0000000067353600BD
:102890006735366200000B03645B5D5D6662522A39
:1028A00000000000673536006735366300000B0313
:1028B000645B5D5D6662562A000000006735370084
:1028C0006735377800000B03645B5D5D66625A2AEA
:1028D00000000000673537006735377900000B03CB
:1028E000645B5D5D66625E2A00000000673537004C
:1028F0006735377A00000B03645B5D5D6662622AB0
:1029000000000000673537006735376100000B03B2
:10291000645B5D5D6662662A000000006735370013
:102920006735376200000B03645B5D5D66626A2A8F
:1029300000000000673537006735376300000B0380
:10294000645B5D5D66626E2A0000000067353800DA
:102950006735387800000B03645B5D5D6662722A40
:1029600000000000673538006735387900000B0338
:10297000645B5D5D6662762A0000000067353800A2
:102980006735387A00000B03645B5D5D66627A2A06
:1029900000000000673538006735386100000B0320
:1029A000645B5D5D66627E2A00000000673538006A
:1029B0006735386200000B03645B5D5D6662822AE6
:1029C00000000000673538006735386300000B03EE
:1029D000645B5D5D6662862A000000006735390031
:1029E0006735397800000B03645B5D5D66628A2A97
:1029F00000000000673539006735397900000B03A6
:102A0000645B5D5D66628E2A0000000067353900F8
:102A10006735397A00000B03645B5D5D6662922A5C
:102A200000000000673539006735396100000B038D
:102A3000645B5D5D6662962A0000000067353900C0
:102A40006735396200000B03645B5D5D66629A2A3C
:102A500000000000673539006735396300000B035B
:102A6000645B5D5D66629E2A00000000673932008B
:102A70006739327800000103645B5D5D965D832CED
:102A80000000000067393200673932790000010325
:102A9000645B5D5D965D872C000000006739320045
:102AA0006739327A00000103645B5D5D965D8B2CB3
:102AB000000000006739320067393261000001030D
:102AC000645B5D5D965D8F2C00000000673932000D
:102AD0006739326200000103645B5D5D965D932C93
:102AE00000000000673932006739326300000103DB
:102AF000645B5D5D965D972C0000000067323800D6
:102B00006732387800000103685B5D5D965D9B2C41
:102B10000000000067323800673238790000010396
:102B2000685B5D5D965D9F2C000000006732380099
:102B30006732387A00000103685B5D5D965DA32C07
:102B4000000000006732380067323861000001037E
:102B5000685B5D5D965DA72C000000006732380061
:102B60006732386200000103685B5D5D965DAB2CE7
:102B7000000000006732380067323863000001034C
:102B8000685B5D5D965DAF2C000000006733300030
:102B90006733307800000103685B5D5D965DB32CA0
:102BA0000000000067333000673330790000010314
:102BB000685B5D5D965DB72C0000000067333000F8
:102BC0006733307A00000103685B5D5D965DBB2C66
:102BD00000000000673330006733306100000103FC
:102BE000685B5D5D965DBF2C0000000067333000C0
:102BF0006733306200000103685B5D5D965DC32C46
:102C000000000000673330006733306300000103C9
:102C1000685B5D5D965DC72C000000006A6964001A
:102C20006A69646100000000A8C0365D565E4C34DD
:102C3000000000006A6964006A69646200000000C4
:102C4000A8C0365D565E5034000000006A6964001A
:102C50006A69646300000000A8C0365D565E5434A3
:102C6000000000006A6964006A6964640000000092
:102C7000A8C0365D565E58340000000073797300BA
:102C80006A61000000000F00865A5D5D6662E029FF
:102C90000050C347737973006374000000000F0491
:102CA000A55A5D5D6662E4290AD7233C73797300F7
:102CB000736C000000000700C45AEE5C985DE829C0
:102CC00000000000737973007374000000000700B7
:102CD00031BCEE5C11BCBB290000000073797300AD
:102CE0006D740000000007026EB95D5DDDB88153B0
:102CF00000000040000000006D65000000000000C2
:102D0000A9C03FB93FB92434000000000000000012
:102D10006D64000000000000A9C017B917B9243481
:102D20000000000073797300656A0000000007006E
:102D3000397FEE5CBE5DD9330000803F737973004C
:102D40006A760000000007003D7FEE5CCA7EF33724
:102D500000000040737973006A73000000000700F0
:102D6000417FEE5CBE5DF5370000803F73797300F4
:102D700074760000000007009EC1EE5CBE5DF45456
:102D80000000803F73797300717600000000070037
:102D9000CDACEE5C085EBA5200000000737973009F
:102DA000737600000000070025ABEE5CE35DC752C0
:102DB0000000803F73797300736900000000070012
:102DC00021AB125DE9AAC8520000FA43737973007F
:102DD0006563000000000700B762EE5C7163DA33E0
:102DE00000000000737973006565000000000700B3
:102DF000BB62EE5CE163DB330000000073797300BB
:102E00006578000000000700BF62EE5CA963DC3358
:102E10000000803F737973006261756400000400F4
:102E2000C362EE5C0362DD330000A040737973007F
:102E30006E65740000000700C762EE5C985D3B346D
:102E4000000000007379730067706C0000000700D9
:102E5000725AEE5CE35DF62900000000737973009E
:102E600067756E0000000700765AEE5CBE5DF729BC
:102E70000000803F7379730067636F0000000700F4
:102E80007A5AEE5C985DF5290000803F73797300F3
:102E900067706100000007007E5AEE5CE35DF82970
:102EA0000000004073797300676469000000070048
:102EB000825AEE5CBE5DF9290000000000000000AF
:102EC0006763000000000000A8C0FE760E7724347F
:102ED00000000000000000006D61000000000B0415
:102EE000C85A5D5D6662ED29CDCCCC3D0000000086
:102EF0006664000000000300C1C0EE5CBE5DF437F4
:102F0000000000007564610075646130000003001A
:102F1000DDC0365D565EDF33000000007564610081
:102F20007564613100000300DDC0365D565EE33339
:102F300000000000756461007564613200000300E8
:102F4000DDC0365D565EE733000000007564610049
:102F50007564613300000300DDC0365D565EEB33FF
:102F600000000000756462007564623000000300B8
:102F7000DDC0365D565EEF33000000007564620010
:102F80007564623100000300DDC0365D565EF333C8
:102F90000000000075646200756462320000030086
:102FA000DDC0365D565EF7330000000075646200D8
:102FB0007564623300000300DDC0365D565EFB338E
:102FC0000000000075646300756463300000030056
:102FD000DDC0365D565EFF3300000000756463009F
:102FE0007564633100000300DDC0365D565E033456
:102FF0000000000075646300756463320000030024
:10300000DDC0365D565E0734000000007564630065
:103010007564633300000300DDC0365D565E0B341B
:1030200000000000756464007564643000000300F3
:10303000DDC0365D565E0F3400000000756464002C
:103040007564643100000300DDC0365D565E1334E4
:1030500000000000756464007564643200000300C1
:10306000DDC0365D565E17340000000075646400F4
:103070007564643300000300DDC0365D565E1B34AA
:10308000000000005F7465005F7465780000000256
:10309000FAC05D5D965D2A50000000005F74650017
:1030A0005F74657900000002FAC05D5D965D2E5088
:1030B000000000005F7465005F74657A0000000224
:1030C000FAC05D5D965D3250000000005F746500DF
:1030D0005F74656100000002FAC05D5D965D365068
:1030E000000000005F7465005F746562000000020C
:1030F000FAC05D5D965D3A50000000005F746500A7
:103100005F74656300000002FAC05D5D965D3E502D
:10311000000000005F7472005F74727800000002AB
:10312000FAC05D5D965D4F51000000005F74720053
:103130005F74727900000002FAC05D5D965D5351C4
:10314000000000005F7472005F74727A0000000279
:10315000FAC05D5D965D5751000000005F7472001B
:103160005F74726100000002FAC05D5D965D5B51A4
:10317000000000005F7472005F7472620000000261
:10318000FAC05D5D965D5F51000000005F747200E3
:103190005F74726300000002FAC05D5D965D63516A
:1031A000000000005F7473005F7473310000000260
:1031B000FAC05D5D965DBA50000000005F7073005C
:1031C0005F70733100000002FAC05D5D965DCA5009
:1031D000000000005F6373005F6373310000000252
:1031E000FAC05D5D965DDA50000000005F65730017
:1031F0005F65733100000002FAC05D5D965DEA50C4
:10320000000000005F7873005F78733100000002F7
:10321000FAC05D5D965D1C54000000005F666500AD
:103220005F66653100000002FAC05D5D965DFA5090
:10323000000000005F7473005F74733200000002CE
:10324000FAC05D5D965DBE50000000005F707300C7
:103250005F70733200000002FAC05D5D965DCE5073
:10326000000000005F6373005F63733200000002C0
:10327000FAC05D5D965DDE50000000005F65730082
:103280005F65733200000002FAC05D5D965DEE502E
:10329000000000005F7873005F7873320000000266
:1032A000FAC05D5D965D3454000000005F66650005
:1032B0005F66653200000002FAC05D5D965DFE50FB
:1032C000000000005F7473005F747333000000023D
:1032D000FAC05D5D965DC250000000005F70730033
:1032E0005F70733300000002FAC05D5D965DD250DE
:1032F000000000005F6373005F637333000000022F
:10330000FAC05D5D965DE250000000005F657300ED
:103310005F65733300000002FAC05D5D965DF25098
:10332000000000005F7873005F78733300000002D4
:10333000FAC05D5D965D4C54000000005F6665005C
:103340005F66653300000002FAC05D5D965D025164
:10335000000000005F7473005F74733400000002AB
:10336000FAC05D5D965DC650000000005F7073009E
:103370005F70733400000002FAC05D5D965DD65048
:10338000000000005F6373005F637334000000029D
:10339000FAC05D5D965DE650000000005F65730059
:1033A0005F65733400000002FAC05D5D965DF65003
:1033B000000000005F7873005F7873340000000243
:1033C000FAC05D5D965D6454000000005F666500B4
:1033D0005F66653400000002FAC05D5D965D0651CF
:1033E00000000000000000005F64616D000000004C
:1033F000A8C0DA59DA5924340000000000000000A7
:103400007365303000000200A8C0125D2D5ED352FB
:103410000000000000000000736530310000020071
:10342000A8C0125D2D5ED552000000000000000013
:103430007365303200000200A8C0125D2D5ED752C5
:10344000000000000000000073653033000002003F
:10345000A8C0125D2D5ED9520000000000000000DF
:103460007365303400000200A8C0125D2D5EDB528F
:10347000000000000000000073653035000002000D
:10348000A8C0125D2D5EDD520000000000000000AB
:103490007365303600000200A8C0125D2D5EDF5259
:1034A00000000000000000007365303700000200DB
:1034B000A8C0125D2D5EE152000000000000000077
:1034C0007365303800000200A8C0125D2D5EE35223
:1034D00000000000000000007365303900000200A9
:1034E000A8C0125D2D5EE552000000000000000043
:1034F0007365313000000200A8C0125D2D5EE752F6
:10350000000000000000000073653131000002007F
:10351000A8C0125D2D5EE95200000000000000000E
:103520007365313200000200A8C0125D2D5EEB52BF
:10353000000000000000000073653133000002004D
:10354000A8C0125D2D5EED520000000000000000DA
:103550007365313400000200A8C0125D2D5EEF5289
:10356000000000000000000073653135000002001B
:10357000A8C0125D2D5EF1520000000000000000A6
:103580007365313600000200A8C0125D2D5EF35253
:1035900000000000000000007365313700000200E9
:1035A000A8C0125D2D5EF552000000000000000072
:1035B0007365313800000200A8C0125D2D5EF7521D
:1035C00000000000000000007365313900000200B7
:1035D000A8C0125D2D5EF95200000000000000003E
:1035E0007365323000000200A8C0125D2D5EFB52F0
:1035F000000000000000000073653231000002008E
:10360000A8C0125D2D5EFD52000000000000000009
:103610007365323200000200A8C0125D2D5EFF52B9
:10362000000000000000000073653233000002005B
:10363000A8C0125D2D5E01530000000000000000D4
:103640007365323400000200A8C0125D2D5E035382
:103650000000000000000000736532350000020029
:10366000A8C0125D2D5E05530000000000000000A0
:103670007365323600000200A8C0125D2D5E07534C
:1036800000000000000000007365323700000200F7
:10369000A8C0125D2D5E095300000000000000006C
:1036A0007365323800000200A8C0125D2D5E0B5316
:1036B00000000000000000007365323900000200C5
:1036C000A8C0125D2D5E0D53000000000000000038
:1036D0007379730000000000A8C04260B65E243415
:1036E0000000000000000000703100000000000039
:1036F000A8C04260B65E2434000000000000000054
:103700003100000000000000A8C04260B65E243412
:103710000000000000000000320000000000000077
:10372000A8C04260B65E2434000000000000000023
:103730003300000000000000A8C04260B65E2434E0
:103740000000000000000000340000000000000045
:10375000A8C04260B65E24340000000000000000F3
:103760007800000000000000A8C04260B65E24346B
:1037700000000000000000007900000000000000D0
:10378000A8C04260B65E24340000000000000000C3
:103790007A00000000000000A8C04260B65E243439
:1037A00000000000000000006100000000000000B8
:1037B000A8C04260B65E2434000000000000000093
:1037C0006200000000000000A8C04260B65E243421
:1037D0000000000000000000630000000000000086
:1037E000A8C04260B65E2434000000000000000063
:1037F0006735340000000000A8C04260B65E243483
:1038000000000000000000006735350000000000E7
:10381000A8C04260B65E2434000000000000000032
:103820006735360000000000A8C04260B65E243450
:1038300000000000000000006735370000000000B5
:10384000A8C04260B65E2434000000000000000002
:103850006735380000000000A8C04260B65E24341E
:103860000000000000000000673539000000000083
:10387000A8C04260B65E24340000000000000000D2
:103880006739320000000000A8C04260B65E2434F0
:103890000000000000000000673238000000000057
:1038A000A8C04260B65E24340000000000000000A2
:1038B0006733300000000000A8C04260B65E2434C8
:1038C00000000000000000006D706F0000000000AC
:1038D000A8C04260B65E2434000000000000000072
:1038E000706F730000000000A8C04260B65E243410
:1038F00000000000000000006F6673000000000080
:10390000A8C04260B65E2434000000000000000041
:10391000686F6D0000000000A8C04260B65E2434ED
:103920000000000000000000707262000000000053
:10393000A8C04260B65E2434000000000000000011
:103940007077720000000000A8C04260B65E2434A8
:1039500000000000000000006A6F67000000000027
:10396000A8C04260B65E24340000000000000000E1
:103970006A69640000000000A8C04260B65E24349A
:1039800000000000000000007564610000000000FD
:10399000A8C04260B65E24340000000000000000B1
:1039A0007564620000000000A8C04260B65E243466
:1039B00000000000000000007564630000000000CB
:1039C000A8C04260B65E2434000000000000000081
:1039D0007564640000000000A8C04260B65E243434
:1039E00000000000000000005F746500000000009F
:1039F000A8C04260B65E2434000000000000000051
:103A00005F74720000000000A8C04260B65E2434FB
:103A100000000000000000005F7473000000000060
:103A2000A8C04260B65E2434000000000000000020
:103A30005F70730000000000A8C04260B65E2434CE
:103A400000000000000000005F6373000000000041
:103A5000A8C04260B65E24340000000000000000F0
:103A60005F65730000000000A8C04260B65E2434A9
:103A700000000000000000005F78730000000000FC
:103A8000A8C04260B65E24340000000000000000C0
:103A90005F66650000000000A8C04260B65E243486
:103AA00000000000000000006D00000000000000A9
:103AB000A8C02C63965D24340000000000000000C4
:103AC0007100000000000000A8C01263965D24345D
:103AD00000000000000000006F0000000000000077
:103AE000A8C0F862965D24340000000000000000C9
:103AF0002400000000000000A8C04663965D243446
:103B000000000000456E64206F6620636F6D6D617C
:103B10006E642066696C650A00486F6D696E672087
:103B20006572726F72202D20256320617869732081
:103B300073657474696E6773206D6973636F6E6605
:103B40006967757265640050726F62696E6720659F
:103B500072726F72202D2025632061786973206353
:103B6000616E6E6F74206D6F766520647572696E1C
:103B7000672070726F62696E67005B69645D202008
:103B800054696E7947204944253330730A005B68D5
:103B9000765D202068617264776172652076657257
:103BA00073696F6E2531362E32660A005B68705D70
:103BB0002020686172647761726520706C61746640
:103BC0006F726D2531352E32660A005B66765D2098
:103BD000206669726D776172652076657273696FB0
:103BE0006E2531362E32660A005B66625D202066E5
:103BF00069726D77617265206275696C6425313810
:103C00002E32660A00456E7465722024626F6F74EE
:103C10003D3120746F20656E746572207468652074
:103C2000626F6F74206C6F616465722E0A000A0AFD
:103C30000A2323232054696E794720424F4F542092
:103C40004C4F414445522048656C70202323230A81
:103C500000456E7465722024646566613D31207490
:103C60006F2072657365742074686520737973744E
:103C7000656D20746F2074686520666163746F726F
:103C8000792064656661756C742076616C75657306
:103C90002E0A546869732077696C6C206F766572A0
:103CA000777269746520616E79206368616E6765FB
:103CB0007320796F752068617665206D6164652E6B
:103CC0000A000A0A0A2323232054696E79472052E6
:103CD0004553544F52452044454641554C5453207A
:103CE00048656C70202323230A00496E766F6B654C
:103CF0002073656C66207465737420627920656E2C
:103D0000746572696E672024746573743D4E207704
:103D100068657265204E206973206F6E65206F663E
:103D20003A0A202024746573743D312020736D6F2E
:103D30006B6520746573740A202024746573743D68
:103D4000322020686F6D696E67207465737420205F
:103D50002028796F75206D757374207472697020D6
:103D6000686F6D696E67207377697463686573291E
:103D70000A202024746573743D33202073717561AB
:103D80007265207465737420202028612073657229
:103D9000696573206F662073717561726573290A96
:103DA000202024746573743D342020617263207474
:103DB00065737420202020202028736F6D65206C8F
:103DC0006172676520636972636C6573290A2020DC
:103DD00024746573743D3520206477656C6C2074A1
:103DE00065737420202020286D6F766573207370B2
:103DF000616365642062792031207365636F6E644E
:103E0000206477656C6C73290A20202474657374B0
:103E10003D36202066656564686F6C642074657348
:103E2000742028656E746572202120616E64207E86
:103E300020746F20686F6C6420616E6420726573FB
:103E4000746172742C207265737065637469766531
:103E50006C79290A202024746573743D3720204D25
:103E600020636F64657320746573742020284D206F
:103E7000636F64657320696E7465726D696E676CDB
:103E800065642077697468206D6F766573290A20F0
:103E90002024746573743D3820204A534F4E20749B
:103EA0006573742020202020286D6F74696F6E2048
:103EB000746573742072756E207573696E67204A1D
:103EC000534F4E20636F6D6D616E6473290A20201D
:103ED00024746573743D392020696E76657273654C
:103EE0002074696D6520746573740A2020247465DC
:103EF00073743D313020726F74617279206D6F740C
:103F0000696F6E20746573740A202024746573745D
:103F10003D313120736D616C6C206D6F766573205F
:103F2000746573740A202024746573743D313220E3
:103F3000736C6F77206D6F76657320746573740A88
:103F4000202024746573743D313320636F6F726475
:103F5000696E6174652073797374656D206F666630
:103F6000736574207465737420284739322C204798
:103F700035342D473539290A0A5465737473206125
:103F80007373756D6520612063656E746572656419
:103F9000205859206F726967696E20616E642061D4
:103FA00074206C656173742038306D6D20636C65AE
:103FB0006172616E636520696E20616C6C2064695A
:103FC00072656374696F6E730A54657374732061EC
:103FD0007373756D65205A20686173206174206C5D
:103FE000656173742034306D6D20706F736969740E
:103FF00069766520636C656172616E63650A5465FC
:1040000073747320737461727420776974682061AB
:10401000204730205830205930205A30206D6F769C
:10402000650A486F6D696E67206973207468652042
:10403000657863657074696F6E2E204E6F20696EAF
:10404000697469616C20706F736974696F6E206F39
:104050007220636C656172616E63652069732061B3
:104060007373756D65640A000A0A0A2323232054BA
:10407000696E79472053454C462054455354204897
:10408000656C70202323230A004561636820242087
:10409000636F6D6D616E642061626F766520616C27
:1040A000736F20646973706C617973207468652024
:1040B000746F6B656E20666F722065616368207334
:1040C000657474696E6720696E205B205D20627282
:1040D00061636B6574730A546F207669657720732A
:1040E000657474696E677320656E746572206120F3
:1040F000746F6B656E3A0A0A2020243C746F6B65FE
:104100006E3E0A0A466F72206578616D706C65209C
:104110002479667220746F20646973706C617920F1
:104120007468652059206D61782066656564207229
:104130006174650A0A546F20757064617465207338
:10414000657474696E677320656E74657220746F30
:104150006B656E20657175616C732076616C756539
:104160003A0A0A2020243C746F6B656E3E3D3C7613
:10417000616C75653E0A0A466F72206578616D70E4
:104180006C6520247966723D38303020746F20735E
:104190006574207468652059206D617820666565B6
:1041A00064207261746520746F20383030206D6D2A
:1041B0002F6D696E7574650A466F7220636F6E6647
:1041C000696775726174696F6E2064657461696C8A
:1041D00073207365653A2068747470733A2F2F6783
:1041E00069746875622E636F6D2F73796E7468657C
:1041F000746F732F54696E79472F77696B692F54E9
:10420000696E79472D436F6E66696775726174696F
:104210006F6E0A00546865736520636F6D6D616E23
:104220006473206172652061637469766520666FCE
:104230007220636F6E66696775726174696F6E3A3A
:104240000A2020247379732053686F772073797361
:1042500074656D202867656E6572616C29207365D1
:104260007474696E67730A202024312020205368FB
:104270006F77206D6F746F7220312073657474696D
:104280006E677320286F7220776861746576657237
:10429000206D6F746F7220796F752077616E742056
:1042A000312C322C332C34290A2020247820202051
:1042B00053686F7720582061786973207365747430
:1042C000696E677320286F72207768617465766500
:1042D00072206178697320796F752077616E742020
:1042E000782C792C7A2C612C622C63290A202024CA
:1042F0006D20202053686F7720616C6C206D6F7487
:104300006F722073657474696E67730A202024715C
:1043100020202053686F7720616C6C20617869736E
:104320002073657474696E67730A2020246F2020DF
:104330002053686F7720616C6C206F6666736574BC
:104340002073657474696E67730A2020242420200A
:104350002053686F7720616C6C2073657474696E8C
:1043600067730A2020246820202053686F77207408
:104370006869732068656C702073637265656E0A86
:104380000A000A0A0A2323232054696E794720432E
:104390004F4E46494755524154494F4E2048656C4F
:1043A00070202323230A000A466F7220646574611B
:1043B000696C65642054696E794720696E666F2068
:1043C0007365653A2068747470733A2F2F67697447
:1043D0006875622E636F6D2F73796E746865746F84
:1043E000732F54696E79472F77696B692F0A466F6F
:1043F0007220746865206C617465737420666972DC
:104400006D77617265207365653A206874747073A6
:104410003A2F2F6769746875622E636F6D2F7379F9
:104420006E746865746F732F54696E79470A506CA7
:1044300065617365206C6F6720616E7920697373A5
:1044400075657320617420687474703A2F2F7777C4
:10445000772E73796E746865746F732E636F6D2F2A
:10446000666F72756D730A486176652066756E0AAF
:10447000000A4E6F74653A2054696E79472067656B
:104480006E657261746573206175746F6D617469B6
:104490006320737461747573207265706F727473C6
:1044A0002062792064656661756C740A546869736A
:1044B0002063616E2062652064697361626C65646B
:1044C00020627920656E746572696E672024737648
:1044D0003D300A536565207468652077696B6920F3
:1044E00062656C6F7720666F72206D6F72652064F5
:1044F000657461696C732E0A005468657365206386
:104500006F6D6D616E6473206172652061637469A3
:1045100076652066726F6D2074686520636F6D6DBF
:10452000616E64206C696E653A0A205E78202020F6
:104530002020202020202020202052657365742018
:1045400028636F6E74726F6C207829202D20736F32
:104550006674776172652072657365740A20203F06
:10456000202020202020202020202020204D61639A
:1045700068696E6520706F736974696F6E20616E13
:10458000642067636F6465206D6F64656C2073746D
:104590006174650A20202420202020202020202053
:1045A0002020202053686F7720616E64207365742B
:1045B00020636F6E66696775726174696F6E2073D0
:1045C000657474696E67730A2020212020202020E2
:1045D000202020202020202046656564686F6C64C0
:1045E000202D2073746F70206D6F74696F6E20774B
:1045F0006974686F7574206C6F73696E6720706F73
:10460000736974696F6E0A20207E2020202020208C
:10461000202020202020204379636C652053746182
:104620007274202D20726573746172742066726FCB
:104630006D2066656564686F6C640A2020682020C0
:10464000202020202020202020202053686F772049
:10465000746869732068656C702073637265656E39
:104660000A20202468202020202020202020202014
:104670002053686F7720636F6E6669677572617427
:10468000696F6E2068656C702073637265656E0A71
:1046900020202474657374202020202020202020D6
:1046A0004C6973742073656C662D74657374730A3A
:1046B000202024746573743D4E202020202020206B
:1046C00052756E2073656C662D74657374204E0A86
:1046D000202024686F6D653D31202020202020207F
:1046E00052756E206120686F6D696E672063796313
:1046F0006C650A202024646566613D3120202020FD
:10470000202020526573746F726520616C6C207379
:10471000657474696E677320746F202266616374B8
:104720006F7279222064656661756C74730A000A81
:104730000A0A2323232054696E79472048656C7048
:10474000202323230A005B6A735D20206A736F6E47
:104750002073657269616C697A65207374796C6520
:10476000253964205B303D72656C617865642C315D
:104770003D7374726963745D0A005B6A765D202024
:104780006A736F6E20766572626F73697479253112
:104790003564205B303D73696C656E742C313D6609
:1047A0006F6F7465722C323D6D65737361676573ED
:1047B0002C333D636F6E666967732C343D6C696E94
:1047C000656E756D2C353D766572626F73655D0A39
:1047D000005B656A5D2020656E61626C65206A73AE
:1047E0006F6E206D6F646525313364205B303D74DE
:1047F0006578742C313D4A534F4E5D0A000A5904C6
:1048000059FD58F858EF58E458D958CD58C158B305
:10481000589C588D5880587458605853583E582AA0
:10482000582758245815580058EB57DC57CC57BA1E
:1048300057A3578657695750573A57295717570A5A
:1048400057F856DE56DB56D856D556D256CF56CCEC
:1048500056C956C656C356C056BD56BA56B756B4B4
:1048600056B156AE56AB56A856A556A2569F569C64
:104870005699569656935690568D568A5687568414
:104880005681567E567B567856755672566F566CC4
:104890005669566656635660565D565A5657565474
:1048A0005651564E564B564856455642563F563C24
:1048B000561856F855DE55C455AA558655695551B2
:1048C000553B552155FD54E054CE54AE5497547E7B
:1048D000545C54435425540954F153DF53C153AC31
:1048E00053A853A453A0539C539853945390538C60
:1048F000538853845380537C537853745370536C50
:10490000535253385325530953F752E052BF52AE16
:10491000528E526E5254523A522352F051C351A306
:104920005181515B5134511851F950DF50C550A09D
:104930005077505F5034500850D24F9D4F8B4F7975
:104940004F6A4F574F3E4F1C4F0A4FF84EE64ED41A
:104950004EC24EB04E9E4E8C4E7A4E684E564E44CF
:104960004E324E204E1C4E184E144E104E0C4E0819
:104970004E044E004EFC4DF84DF44DF04DEC4DE81C
:104980004DE44DE04DDC4DD84DD44DD04DBC4D9E49
:104990004D824D574D324D0D4D094D054D014DFD8B
:1049A0004CF94CF54CF14CED4CE94CE54CE14CDD4F
:1049B0004CD94CD54CC14CA54C894C6D4C514C3507
:1049C0004C194CFD4BE14BC54BA94B8D4B714B6DBD
:1049D0004B694B654B614B5D4B594B554B414B19EB
:1049E0004BF24ACC4A9F4A794A4C4A484A444A4088
:1049F0004A2D4A0C4AF7494A6F6767696E67206318
:104A000079636C65206661696C65640050726F62E1
:104A10006520656E64706F696E74206973207374AD
:104A2000617274696E6720706F696E740050726F86
:104A30006265206379636C65206661696C656400FA
:104A4000323439003234380032343700486F6D69FF
:104A50006E67204572726F72202D20486F6D696EEF
:104A600067207377697463686573206D6973636F1A
:104A70006E6669677572656400486F6D696E672060
:104A80004572726F72202D204E656761746976657C
:104A9000206C61746368206261636B6F66660048B6
:104AA0006F6D696E67204572726F72202D2054728F
:104AB0006176656C206D696E2026206D61782061BD
:104AC0007265207468652073616D6500486F6D695B
:104AD0006E67204572726F72202D204C617463687E
:104AE0002076656C6F63697479206973207A6572CA
:104AF0006F00486F6D696E67204572726F72202D6E
:104B0000205365617263682076656C6F63697479A0
:104B1000206973207A65726F00486F6D696E672037
:104B20004572726F72202D20426164206F72206E78
:104B30006F20617869732073706563696669656465
:104B400000486F6D696E67206379636C65206661EC
:104B5000696C6564003233390032333800323337E0
:104B600000323336003233350032333400323333DF
:104B700000536F6674206C696D6974206578636595
:104B800065646564202D2043206D617800536F6655
:104B900074206C696D69742065786365656465640B
:104BA000202D2043206D696E00536F6674206C6960
:104BB0006D6974206578636565646564202D2042A5
:104BC000206D617800536F6674206C696D69742084
:104BD0006578636565646564202D2042206D696E8B
:104BE00000536F6674206C696D6974206578636525
:104BF00065646564202D2041206D617800536F66E7
:104C000074206C696D69742065786365656465649A
:104C1000202D2041206D696E00536F6674206C69F1
:104C20006D6974206578636565646564202D205A1C
:104C3000206D617800536F6674206C696D69742013
:104C40006578636565646564202D205A206D696E02
:104C500000536F6674206C696D69742065786365B4
:104C600065646564202D2059206D617800536F665E
:104C700074206C696D69742065786365656465642A
:104C8000202D2059206D696E00536F6674206C6969
:104C90006D6974206578636565646564202D2058AE
:104CA000206D617800536F6674206C696D697420A3
:104CB0006578636565646564202D2058206D696E94
:104CC00000536F6674206C696D6974206578636544
:104CD0006564656400323139003231380032313771
:104CE0000032313600323135003231340032313366
:104CF000003231320032313100323130003230395D
:104D000000323038003230370032303600547261B1
:104D100070657A6F696420706C616E6E6572206672
:104D200061696C656420746F20636F6E766572676D
:104D300065004C696D6974207377697463682068D5
:104D40006974202D2053687574646F776E206F63CB
:104D5000637572726564004D616368696E65206990
:104D60007320616C61726D6564202D20436F6D6DE1
:104D7000616E64206E6F742070726F63657373650B
:104D800064004D6F7665206C657373207468616E86
:104D9000206D696E696D756D2074696D65004D6F6C
:104DA0007665206C657373207468616E206D696E22
:104DB000696D756D206C656E6774680047656E651A
:104DC0007269632054696E7947206572726F720050
:104DD000313939003139380031393700313936004D
:104DE000313935003139340031393300313932004D
:104DF000313931003139300031383900313838003B
:104E00003138370031383600313835003138340028
:104E10003138330031383200313831003138300028
:104E20005420776F726420697320696E76616C69B3
:104E300064005420776F7264206973206D69737306
:104E4000696E67005220776F726420697320696E03
:104E500076616C6964005220776F726420697320F8
:104E60006D697373696E67005120776F7264206992
:104E70007320696E76616C6964005120776F72648B
:104E8000206973206D697373696E67004C20776FBA
:104E9000726420697320696E76616C6964004C20CD
:104EA000776F7264206973206D697373696E670030
:104EB0004820776F726420697320696E76616C692F
:104EC00064004820776F7264206973206D69737382
:104ED000696E67004520776F726420697320696E80
:104EE00076616C6964004520776F72642069732075
:104EF0006D697373696E67004420776F726420690F
:104F00007320696E76616C6964004420776F726407
:104F1000206973206D697373696E67005020776F25
:104F20007264206973206E6F7420612076616C69F1
:104F30006420746F6F6C206E756D62657200502016
:104F4000776F7264206973206E6F7420616E2069C0
:104F50006E7465676572005020776F7264206973A4
:104F6000206E65676174697665005020776F7264A2
:104F7000206973207A65726F005020776F72642009
:104F8000697320696E76616C6964005020776F7276
:104F900064206973206D697373696E670041726381
:104FA0002073706563696669636174696F6E2065FB
:104FB00072726F72202D20656E64706F696E74203E
:104FC0006973207374617274696E6720706F696EA3
:104FD000740041726320737065636966696361740C
:104FE000696F6E206572726F72202D207261646924
:104FF000757320617263206F7574206F6620746F03
:105000006C6572616E6365004172632073706563E5
:10501000696669636174696F6E206572726F722070
:105020002D206D697373696E67206F666673657492
:105030002873290041726320737065636966696330
:105040006174696F6E206572726F72202D206D69B8
:105050007373696E672061786973286573290041ED
:1050600072632073706563696669636174696F6EEA
:10507000206572726F72005370696E646C65206D8A
:10508000757374206265207475726E696E67206630
:105090006F72207468697320636F6D6D616E640058
:1050A0005370696E646C65206D7573742062652041
:1050B0006F666620666F72207468697320636F6D17
:1050C0006D616E64005370696E646C652053207767
:1050D0006F726420697320696E76616C6964005335
:1050E00070696E646C65205320776F7264206973F9
:1050F000206D697373696E67005370696E646C65C7
:1051000020737065656420657863656564656420F7
:105110006D6178696D756D005370696E646C6520A2
:1051200073706565642062656C6F77206D696E6968
:105130006D756D0050726F6772616D6D6564207082
:105140006F696E742073616D652061732063757281
:1051500072656E7420706F696E7400437574746547
:105160007220636F6D70656E736174696F6E20631A
:10517000616E6E6F7420626520656E61626C65643D
:10518000005265717565737465642076656C6F6334
:105190006974792065786365656473206C696D69ED
:1051A0007473004730206F72204731206D7573741F
:1051B0002062652061637469766520666F7220479E
:1051C000353300526F7461727920617865732063A2
:1051D000616E6E6F742062652075736564207769F7
:1051E0007468207468697320636F6D6D616E64000C
:1051F000496E76657273652074696D65206D6F64A4
:10520000652063616E6E6F742062652075736564DE
:105210002077697468207468697320636F6D6D61AD
:105220006E64004665656472617465206E6F7420FB
:105230007370656369666965640053656C65637462
:10524000656420706C616E6520697320696E76619B
:105250006C69640053656C656374656420706C618F
:105260006E65206973206D697373696E670041789C
:1052700069732074617267657420706F73697469F3
:105280006F6E20697320696E76616C696400417885
:1052900069732074617267657420706F73697469D3
:1052A0006F6E206973206D697373696E6700417852
:1052B00069732069732064697361626C656400417D
:1052C00078697320697320696E76616C6964206601
:1052D0006F72207468697320636F6D6D616E640016
:1052E000417869732063616E6E6F7420626520700F
:1052F000726573656E74004178697320776F7264AC
:10530000206D697373696E670047636F6465206D14
:105310006F64616C2067726F75702076696F6C6165
:1053200074696F6E004D20636F646520756E7375D0
:1053300070706F727465640047636F646520636F9B
:105340006D6D616E6420756E737570706F727465CB
:10535000640047656E657269632047636F6465200A
:10536000696E707574206572726F72003132390027
:1053700031323800313237003132360031323500C7
:1053800031323400313233003132320031323100C7
:1053900031323000313139003131380031313700AC
:1053A0003131360031313500313134004A534F4EFE
:1053B00020737472696E6720746F6F206C6F6E67F4
:1053C000004A534F4E20696E7075742068617320D7
:1053D000746F6F206D616E79207061697273004A1D
:1053E000534F4E2073796E746178206572726F72BC
:1053F00000496E7075742076616C75652072616EFF
:105400006765206572726F7200496E7075742065F1
:10541000786365656473206D6178696D756D20765C
:10542000616C756500496E707574206C65737320CE
:105430007468616E206D696E696D756D2076616C42
:10544000756500496E707574206578636565647371
:10545000206D6178206C656E67746800436F6D6DB8
:10546000616E64206E6F742061636365707465643F
:1054700020617420746869732074696D65005061DF
:1054800072616D657465722063616E6E6F74206207
:1054900065207265616400506172616D657465724A
:1054A00020697320726561642D6F6E6C7900556E92
:1054B000737570706F72746564206E756D6265725D
:1054C000206F72204A534F4E2074797065004261FC
:1054D00064206E756D62657220666F726D61740016
:1054E000496E76616C6964206F72206D616C666FC5
:1054F000726D656420636F6D6D616E6400556E72D0
:1055000065636F676E697A656420636F6D6D616E48
:1055100064206F7220636F6E666967206E616D65CF
:105520000047656E657269632061737365727469A3
:105530006F6E206661696C757265004D656D6F7286
:1055400079206661756C7420646574656374656444
:1055500000537461636B206F766572666C6F7720A1
:10556000646574656374656400436F6E74726F6C18
:105570006C657220617373657274696F6E20666109
:10558000696C7572650043616E6F6E6963616C2052
:105590006D616368696E6520617373657274696FAC
:1055A0006E206661696C75726500506C616E6E6527
:1055B0007220617373657274696F6E206661696CC5
:1055C00075726500537465707065722061737365E0
:1055D0007274696F6E206661696C75726500456EE4
:1055E000636F64657220617373657274696F6E2096
:1055F0006661696C75726500494F207375622D7321
:10560000797374656D20617373657274696F6E2050
:105610006661696C75726500436F6E6669672073B9
:1056200075622D73797374656D206173736572741F
:10563000696F6E206661696C757265003839003873
:105640003800383700383600383500383400383301
:105650000038320038310038300037390037380030
:1056600037370037360037350037340037330037E7
:1056700032003731003730003639003638003637DF
:105680000036360036350036340036330036320008
:1056900036310036300035390035380035370035C1
:1056A00036003535003534003533003532003531BC
:1056B00000353000343900343800343700343600D7
:1056C00034350034340034330034320034310034A3
:1056D000300033390033380033370033360042614D
:1056E0006420737461747573207265706F727420B6
:1056F00073657474696E670050657273697374655D
:105700006E6365206572726F7200466C6F61742003
:105710006973204E414E00466C6F6174206973209E
:10572000696E66696E697465004D6F76652074698F
:105730006D65206973204E414E004D6F7665207473
:10574000696D6520697320696E66696E69746500AC
:1057500047656E6572696320657863657074696F0B
:105760006E207265706F7274004661696C656420AA
:10577000746F2067657420706C616E6E6572206254
:1057800075666665720053797374656D20616C612E
:10579000726D202D207368757474696E6720646F54
:1057A000776E00496E697469616C697A6174696FBA
:1057B0006E206661696C75726500526561642D6F5B
:1057C0006E6C79206164647265737300496E7661F2
:1057D0006C6964204164647265737300446976691E
:1057E0006465206279207A65726F00466C6F61741F
:1057F000696E6720706F696E74206572726F7200D7
:10580000496E7465726E616C2072616E67652065A9
:1058100072726F7200496E7465726E616C2065728F
:10582000726F720031390031380046756E637469E9
:105830006F6E206973207374756262656400456ED3
:10584000746572696E6720626F6F74206C6F61643B
:10585000657200496E697469616C697A696E670086
:105860004275666665722066756C6C202D206661D7
:1058700074616C004275666665722066756C6C00BA
:1058800042756666657220656D707479004E6F2092
:105890007375636820646576696365004D6178207F
:1058A00066696C652073697A6520657863656564EF
:1058B00065640046696C65206E6F74206F70656E5C
:1058C00000456E64206F662066696C6500456E64F5
:1058D000206F66206C696E65004861726420726595
:1058E000736574005465726D696E6174656400431C
:1058F0006F6D706C657465004E6F6F700045616709
:1059000061696E004572726F72004F4B005B7031BF
:10591000706F665D2070776D207068617365206FB1
:1059200066662020202531352E3366205B302E2EF2
:10593000315D0A005B70317770685D2070776D2093
:105940006363772070686173652068692531352E3F
:105950003366205B302E2E315D0A005B703177702C
:105960006C5D2070776D206363772070686173656C
:10597000206C6F2531352E3366205B302E2E315D45
:105980000A005B70317773685D2070776D20636308
:10599000772073706565642068692531352E30661F
:1059A0002052504D0A005B703177736C5D20707728
:1059B0006D20636377207370656564206C6F25319B
:1059C000352E30662052504D0A005B70316370688E
:1059D0005D2070776D206377207068617365206843
:1059E00069202531352E3366205B302E2E315D0A3D
:1059F000005B703163706C5D2070776D2063772081
:105A00007068617365206C6F202531352E336620F8
:105A10005B302E2E315D0A005B70316373685D2050
:105A200070776D20637720737065656420686920E6
:105A30002531352E30662052504D0A005B7031639F
:105A4000736C5D2070776D2063772073706565647B
:105A5000206C6F202531352E30662052504D0A00C3
:105A60005B70316672715D2070776D206672657152
:105A700075656E63792020202531352E30662048EB
:105A80007A0A0053595354454D2052454144590018
:105A90004C6F6164696E6720636F6E66696773201F
:105AA00066726F6D20454550524F4D00496E6974C6
:105AB00069616C697A696E6720636F6E6669677386
:105AC00020746F2064656661756C742073657474EE
:105AD000696E6773007B226572223A7B22666222BE
